{
  "contractName": "Registration",
  "abi": [
    {
      "inputs": [],
      "stateMutability": "nonpayable",
      "type": "constructor"
    },
    {
      "inputs": [],
      "name": "Admin",
      "outputs": [
        {
          "internalType": "address",
          "name": "",
          "type": "address"
        }
      ],
      "stateMutability": "view",
      "type": "function",
      "constant": true
    },
    {
      "inputs": [
        {
          "internalType": "string",
          "name": "",
          "type": "string"
        },
        {
          "internalType": "string",
          "name": "",
          "type": "string"
        },
        {
          "internalType": "string",
          "name": "",
          "type": "string"
        },
        {
          "internalType": "uint256",
          "name": "",
          "type": "uint256"
        }
      ],
      "name": "landDetailsMap",
      "outputs": [
        {
          "internalType": "address",
          "name": "owner",
          "type": "address"
        },
        {
          "internalType": "address",
          "name": "landInspector",
          "type": "address"
        },
        {
          "internalType": "uint256",
          "name": "propertyID",
          "type": "uint256"
        },
        {
          "internalType": "uint256",
          "name": "propertyPrice",
          "type": "uint256"
        },
        {
          "internalType": "uint256",
          "name": "surveyNumber",
          "type": "uint256"
        },
        {
          "internalType": "uint256",
          "name": "carpetArea",
          "type": "uint256"
        },
        {
          "internalType": "bool",
          "name": "isRegistered",
          "type": "bool"
        },
        {
          "internalType": "bool",
          "name": "isAvailable",
          "type": "bool"
        },
        {
          "internalType": "uint256",
          "name": "totalRequests",
          "type": "uint256"
        },
        {
          "internalType": "uint256",
          "name": "index",
          "type": "uint256"
        }
      ],
      "stateMutability": "view",
      "type": "function",
      "constant": true
    },
    {
      "inputs": [
        {
          "internalType": "address",
          "name": "",
          "type": "address"
        }
      ],
      "name": "landInspectors",
      "outputs": [
        {
          "internalType": "address",
          "name": "landInspectorAddress",
          "type": "address"
        },
        {
          "internalType": "string",
          "name": "city",
          "type": "string"
        },
        {
          "internalType": "string",
          "name": "district",
          "type": "string"
        },
        {
          "internalType": "string",
          "name": "state",
          "type": "string"
        }
      ],
      "stateMutability": "view",
      "type": "function",
      "constant": true
    },
    {
      "inputs": [
        {
          "internalType": "address",
          "name": "",
          "type": "address"
        },
        {
          "internalType": "uint256",
          "name": "",
          "type": "uint256"
        }
      ],
      "name": "ownerMapsProperty",
      "outputs": [
        {
          "internalType": "uint256",
          "name": "surveyNumber",
          "type": "uint256"
        },
        {
          "internalType": "string",
          "name": "state",
          "type": "string"
        },
        {
          "internalType": "string",
          "name": "district",
          "type": "string"
        },
        {
          "internalType": "string",
          "name": "city",
          "type": "string"
        }
      ],
      "stateMutability": "view",
      "type": "function",
      "constant": true
    },
    {
      "inputs": [
        {
          "internalType": "address",
          "name": "",
          "type": "address"
        },
        {
          "internalType": "uint256",
          "name": "",
          "type": "uint256"
        }
      ],
      "name": "requestedProperty",
      "outputs": [
        {
          "internalType": "uint256",
          "name": "surveyNumber",
          "type": "uint256"
        },
        {
          "internalType": "string",
          "name": "state",
          "type": "string"
        },
        {
          "internalType": "string",
          "name": "district",
          "type": "string"
        },
        {
          "internalType": "string",
          "name": "city",
          "type": "string"
        }
      ],
      "stateMutability": "view",
      "type": "function",
      "constant": true
    },
    {
      "inputs": [],
      "name": "totalLandInspectors",
      "outputs": [
        {
          "internalType": "uint256",
          "name": "",
          "type": "uint256"
        }
      ],
      "stateMutability": "view",
      "type": "function",
      "constant": true
    },
    {
      "inputs": [
        {
          "internalType": "address",
          "name": "",
          "type": "address"
        }
      ],
      "name": "user",
      "outputs": [
        {
          "internalType": "address",
          "name": "userAddress",
          "type": "address"
        },
        {
          "internalType": "string",
          "name": "name",
          "type": "string"
        },
        {
          "internalType": "string",
          "name": "gender",
          "type": "string"
        },
        {
          "internalType": "string",
          "name": "emailAddress",
          "type": "string"
        },
        {
          "internalType": "uint256",
          "name": "contactNumber",
          "type": "uint256"
        },
        {
          "internalType": "string",
          "name": "residentialAddress",
          "type": "string"
        },
        {
          "internalType": "uint256",
          "name": "totalIndices",
          "type": "uint256"
        },
        {
          "internalType": "uint256",
          "name": "requestIndices",
          "type": "uint256"
        }
      ],
      "stateMutability": "view",
      "type": "function",
      "constant": true
    },
    {
      "inputs": [
        {
          "internalType": "address",
          "name": "_landInspectorAddr",
          "type": "address"
        },
        {
          "internalType": "string",
          "name": "_city",
          "type": "string"
        },
        {
          "internalType": "string",
          "name": "_district",
          "type": "string"
        },
        {
          "internalType": "string",
          "name": "_state",
          "type": "string"
        }
      ],
      "name": "addLandInspector",
      "outputs": [],
      "stateMutability": "nonpayable",
      "type": "function"
    },
    {
      "inputs": [],
      "name": "isLandInspector",
      "outputs": [
        {
          "internalType": "bool",
          "name": "",
          "type": "bool"
        }
      ],
      "stateMutability": "view",
      "type": "function",
      "constant": true
    },
    {
      "inputs": [
        {
          "internalType": "string",
          "name": "_state",
          "type": "string"
        },
        {
          "internalType": "string",
          "name": "_district",
          "type": "string"
        },
        {
          "internalType": "string",
          "name": "_city",
          "type": "string"
        },
        {
          "internalType": "uint256",
          "name": "_propertyID",
          "type": "uint256"
        },
        {
          "internalType": "uint256",
          "name": "_surveyNumber",
          "type": "uint256"
        },
        {
          "internalType": "address",
          "name": "_owner",
          "type": "address"
        },
        {
          "internalType": "uint256",
          "name": "_propertyPrice",
          "type": "uint256"
        },
        {
          "internalType": "uint256",
          "name": "_carpetArea",
          "type": "uint256"
        }
      ],
      "name": "propertyRegistry",
      "outputs": [],
      "stateMutability": "nonpayable",
      "type": "function"
    },
    {
      "inputs": [
        {
          "internalType": "string",
          "name": "_name",
          "type": "string"
        },
        {
          "internalType": "string",
          "name": "_gender",
          "type": "string"
        },
        {
          "internalType": "string",
          "name": "_emailAddress",
          "type": "string"
        },
        {
          "internalType": "uint256",
          "name": "_contactNumber",
          "type": "uint256"
        },
        {
          "internalType": "string",
          "name": "_residentialAddress",
          "type": "string"
        }
      ],
      "name": "userRegistration",
      "outputs": [],
      "stateMutability": "nonpayable",
      "type": "function"
    },
    {
      "inputs": [
        {
          "internalType": "uint256",
          "name": "indexNo",
          "type": "uint256"
        }
      ],
      "name": "markAvailable",
      "outputs": [],
      "stateMutability": "nonpayable",
      "type": "function"
    },
    {
      "inputs": [
        {
          "internalType": "string",
          "name": "_state",
          "type": "string"
        },
        {
          "internalType": "string",
          "name": "_district",
          "type": "string"
        },
        {
          "internalType": "string",
          "name": "_city",
          "type": "string"
        },
        {
          "internalType": "uint256",
          "name": "_surveyNumber",
          "type": "uint256"
        }
      ],
      "name": "RequestProperty",
      "outputs": [],
      "stateMutability": "nonpayable",
      "type": "function"
    },
    {
      "inputs": [
        {
          "internalType": "uint256",
          "name": "_indexNumber",
          "type": "uint256"
        },
        {
          "internalType": "uint256",
          "name": "_requestNumber",
          "type": "uint256"
        }
      ],
      "name": "RequestAccept",
      "outputs": [],
      "stateMutability": "nonpayable",
      "type": "function"
    },
    {
      "inputs": [
        {
          "internalType": "string",
          "name": "_state",
          "type": "string"
        },
        {
          "internalType": "string",
          "name": "_district",
          "type": "string"
        },
        {
          "internalType": "string",
          "name": "_city",
          "type": "string"
        },
        {
          "internalType": "uint256",
          "name": "_surveyNumber",
          "type": "uint256"
        }
      ],
      "name": "extractPropertyDetails",
      "outputs": [
        {
          "internalType": "address",
          "name": "",
          "type": "address"
        },
        {
          "internalType": "uint256",
          "name": "",
          "type": "uint256"
        },
        {
          "internalType": "uint256",
          "name": "",
          "type": "uint256"
        },
        {
          "internalType": "uint256",
          "name": "",
          "type": "uint256"
        },
        {
          "internalType": "uint256",
          "name": "",
          "type": "uint256"
        }
      ],
      "stateMutability": "view",
      "type": "function",
      "constant": true
    },
    {
      "inputs": [
        {
          "internalType": "string",
          "name": "_state",
          "type": "string"
        },
        {
          "internalType": "string",
          "name": "_district",
          "type": "string"
        },
        {
          "internalType": "string",
          "name": "_city",
          "type": "string"
        },
        {
          "internalType": "uint256",
          "name": "_surveyNumber",
          "type": "uint256"
        }
      ],
      "name": "extractRequestCount",
      "outputs": [
        {
          "internalType": "uint256",
          "name": "",
          "type": "uint256"
        },
        {
          "internalType": "uint256",
          "name": "",
          "type": "uint256"
        }
      ],
      "stateMutability": "view",
      "type": "function",
      "constant": true
    },
    {
      "inputs": [
        {
          "internalType": "string",
          "name": "_state",
          "type": "string"
        },
        {
          "internalType": "string",
          "name": "_district",
          "type": "string"
        },
        {
          "internalType": "string",
          "name": "_city",
          "type": "string"
        },
        {
          "internalType": "uint256",
          "name": "_surveyNumber",
          "type": "uint256"
        },
        {
          "internalType": "uint256",
          "name": "_requestIndex",
          "type": "uint256"
        }
      ],
      "name": "extractRequester",
      "outputs": [
        {
          "internalType": "address",
          "name": "",
          "type": "address"
        }
      ],
      "stateMutability": "view",
      "type": "function",
      "constant": true
    },
    {
      "inputs": [
        {
          "internalType": "string",
          "name": "_state",
          "type": "string"
        },
        {
          "internalType": "string",
          "name": "_district",
          "type": "string"
        },
        {
          "internalType": "string",
          "name": "_city",
          "type": "string"
        },
        {
          "internalType": "uint256",
          "name": "_surveyNumber",
          "type": "uint256"
        }
      ],
      "name": "isAvailable",
      "outputs": [
        {
          "internalType": "bool",
          "name": "",
          "type": "bool"
        }
      ],
      "stateMutability": "view",
      "type": "function",
      "constant": true
    },
    {
      "inputs": [
        {
          "internalType": "uint256",
          "name": "index",
          "type": "uint256"
        }
      ],
      "name": "extractOwnerOwned",
      "outputs": [
        {
          "internalType": "string",
          "name": "",
          "type": "string"
        },
        {
          "internalType": "string",
          "name": "",
          "type": "string"
        },
        {
          "internalType": "string",
          "name": "",
          "type": "string"
        },
        {
          "internalType": "uint256",
          "name": "",
          "type": "uint256"
        }
      ],
      "stateMutability": "view",
      "type": "function",
      "constant": true
    },
    {
      "inputs": [
        {
          "internalType": "uint256",
          "name": "index",
          "type": "uint256"
        }
      ],
      "name": "extractRequestedProperty",
      "outputs": [
        {
          "internalType": "string",
          "name": "",
          "type": "string"
        },
        {
          "internalType": "string",
          "name": "",
          "type": "string"
        },
        {
          "internalType": "string",
          "name": "",
          "type": "string"
        },
        {
          "internalType": "uint256",
          "name": "",
          "type": "uint256"
        }
      ],
      "stateMutability": "view",
      "type": "function",
      "constant": true
    },
    {
      "inputs": [],
      "name": "extractUser",
      "outputs": [
        {
          "internalType": "string",
          "name": "",
          "type": "string"
        },
        {
          "internalType": "string",
          "name": "",
          "type": "string"
        },
        {
          "internalType": "string",
          "name": "",
          "type": "string"
        },
        {
          "internalType": "uint256",
          "name": "",
          "type": "uint256"
        },
        {
          "internalType": "string",
          "name": "",
          "type": "string"
        }
      ],
      "stateMutability": "view",
      "type": "function",
      "constant": true
    },
    {
      "inputs": [],
      "name": "extractIndices",
      "outputs": [
        {
          "internalType": "uint256",
          "name": "",
          "type": "uint256"
        },
        {
          "internalType": "uint256",
          "name": "",
          "type": "uint256"
        }
      ],
      "stateMutability": "view",
      "type": "function",
      "constant": true
    },
    {
      "inputs": [
        {
          "internalType": "string",
          "name": "_state",
          "type": "string"
        },
        {
          "internalType": "string",
          "name": "_district",
          "type": "string"
        },
        {
          "internalType": "string",
          "name": "_city",
          "type": "string"
        },
        {
          "internalType": "uint256",
          "name": "_surveyNumber",
          "type": "uint256"
        }
      ],
      "name": "haveRequested",
      "outputs": [
        {
          "internalType": "bool",
          "name": "",
          "type": "bool"
        }
      ],
      "stateMutability": "view",
      "type": "function",
      "constant": true
    }
  ],
  "bytecode": "0x608060405234801561001057600080fd5b50336000806101000a81548173ffffffffffffffffffffffffffffffffffffffff021916908373ffffffffffffffffffffffffffffffffffffffff160217905550614698806100606000396000f3fe608060405234801561001057600080fd5b506004361061014d5760003560e01c806393bd10f8116100c3578063be5c028a1161007c578063be5c028a146103ec578063d1dbeff21461041f578063e320977014610452578063eda658f31461046e578063fc493b8b146104a2578063ff1b636d146104db5761014d565b806393bd10f814610305578063992369da14610335578063adf8807114610365578063ae463eae14610398578063b042f29c146103b4578063b3e995d3146103d05761014d565b80636110be1e116101155780636110be1e1461021057806367b3a3441461024057806372f760bd1461025e5780637da981af1461029157806381e7e20e146102b057806383aa0918146102e75761014d565b80630bc24adf146101525780631d861218146101835780632416faf1146101a55780632b5ad6bd146101c157806346906d29146101f4575b600080fd5b61016c60048036038101906101679190613961565b6104f9565b60405161017a929190613a2b565b60405180910390f35b61018b6105eb565b60405161019c959493929190613adc565b60405180910390f35b6101bf60048036038101906101ba9190613b4b565b610992565b005b6101db60048036038101906101d69190613b4b565b610dd2565b6040516101eb9493929190613b78565b60405180910390f35b61020e60048036038101906102099190613bd2565b6110e7565b005b61022a60048036038101906102259190613961565b611b59565b6040516102379190613c2d565b60405180910390f35b610248611c88565b6040516102559190613c2d565b60405180910390f35b61027860048036038101906102739190613ca6565b611d31565b6040516102889493929190613ce2565b60405180910390f35b610299611f19565b6040516102a7929190613a2b565b60405180910390f35b6102ca60048036038101906102c59190613ca6565b611fb6565b6040516102de989796959493929190613d3c565b60405180910390f35b6102ef61223e565b6040516102fc9190613dd6565b60405180910390f35b61031f600480360381019061031a9190613df1565b612244565b60405161032c9190613ec0565b60405180910390f35b61034f600480360381019061034a9190613961565b6122f5565b60405161035c9190613c2d565b60405180910390f35b61037f600480360381019061037a9190613b4b565b61237e565b60405161038f9493929190613b78565b60405180910390f35b6103b260048036038101906103ad9190613edb565b612693565b005b6103ce60048036038101906103c99190613fe5565b612b09565b005b6103ea60048036038101906103e591906140a0565b612bf9565b005b6104066004803603810190610401919061418b565b612cb1565b60405161041694939291906141cb565b60405180910390f35b6104396004803603810190610434919061418b565b612e86565b60405161044994939291906141cb565b60405180910390f35b61046c60048036038101906104679190613961565b61305b565b005b61048860048036038101906104839190613961565b613342565b604051610499959493929190614225565b60405180910390f35b6104bc60048036038101906104b79190613961565b6135b3565b6040516104d29a99989796959493929190614278565b60405180910390f35b6104e36136ca565b6040516104f09190613ec0565b60405180910390f35b600080600060058760405161050e9190614350565b90815260200160405180910390208660405161052a9190614350565b9081526020016040518091039020856040516105469190614350565b90815260200160405180910390206000858152602001908152602001600020600801549050600060058860405161057d9190614350565b9081526020016040518091039020876040516105999190614350565b9081526020016040518091039020866040516105b59190614350565b90815260200160405180910390206000868152602001908152602001600020600201549050818193509350505094509492505050565b6060806060600060606000600660003373ffffffffffffffffffffffffffffffffffffffff1673ffffffffffffffffffffffffffffffffffffffff168152602001908152602001600020600101805461064390614396565b80601f016020809104026020016040519081016040528092919081815260200182805461066f90614396565b80156106bc5780601f10610691576101008083540402835291602001916106bc565b820191906000526020600020905b81548152906001019060200180831161069f57829003601f168201915b505050505090506000600660003373ffffffffffffffffffffffffffffffffffffffff1673ffffffffffffffffffffffffffffffffffffffff168152602001908152602001600020600201805461071290614396565b80601f016020809104026020016040519081016040528092919081815260200182805461073e90614396565b801561078b5780601f106107605761010080835404028352916020019161078b565b820191906000526020600020905b81548152906001019060200180831161076e57829003601f168201915b505050505090506000600660003373ffffffffffffffffffffffffffffffffffffffff1673ffffffffffffffffffffffffffffffffffffffff16815260200190815260200160002060030180546107e190614396565b80601f016020809104026020016040519081016040528092919081815260200182805461080d90614396565b801561085a5780601f1061082f5761010080835404028352916020019161085a565b820191906000526020600020905b81548152906001019060200180831161083d57829003601f168201915b505050505090506000600660003373ffffffffffffffffffffffffffffffffffffffff1673ffffffffffffffffffffffffffffffffffffffff1681526020019081526020016000206004015490506000600660003373ffffffffffffffffffffffffffffffffffffffff1673ffffffffffffffffffffffffffffffffffffffff16815260200190815260200160002060050180546108f790614396565b80601f016020809104026020016040519081016040528092919081815260200182805461092390614396565b80156109705780601f1061094557610100808354040283529160200191610970565b820191906000526020600020905b81548152906001019060200180831161095357829003601f168201915b5050505050905084848484849950995099509950995050505050509091929394565b6000600360003373ffffffffffffffffffffffffffffffffffffffff1673ffffffffffffffffffffffffffffffffffffffff16815260200190815260200160002060008381526020019081526020016000206000015490506000600360003373ffffffffffffffffffffffffffffffffffffffff1673ffffffffffffffffffffffffffffffffffffffff16815260200190815260200160002060008481526020019081526020016000206001018054610a4a90614396565b80601f0160208091040260200160405190810160405280929190818152602001828054610a7690614396565b8015610ac35780601f10610a9857610100808354040283529160200191610ac3565b820191906000526020600020905b815481529060010190602001808311610aa657829003601f168201915b505050505090506000600360003373ffffffffffffffffffffffffffffffffffffffff1673ffffffffffffffffffffffffffffffffffffffff16815260200190815260200160002060008581526020019081526020016000206002018054610b2a90614396565b80601f0160208091040260200160405190810160405280929190818152602001828054610b5690614396565b8015610ba35780601f10610b7857610100808354040283529160200191610ba3565b820191906000526020600020905b815481529060010190602001808311610b8657829003601f168201915b505050505090506000600360003373ffffffffffffffffffffffffffffffffffffffff1673ffffffffffffffffffffffffffffffffffffffff16815260200190815260200160002060008681526020019081526020016000206003018054610c0a90614396565b80601f0160208091040260200160405190810160405280929190818152602001828054610c3690614396565b8015610c835780601f10610c5857610100808354040283529160200191610c83565b820191906000526020600020905b815481529060010190602001808311610c6657829003601f168201915b5050505050905060001515600584604051610c9e9190614350565b908152602001604051809103902083604051610cba9190614350565b908152602001604051809103902082604051610cd69190614350565b9081526020016040518091039020600086815260200190815260200160002060060160019054906101000a900460ff16151514610d48576040517f08c379a0000000000000000000000000000000000000000000000000000000008152600401610d3f9061443a565b60405180910390fd5b6001600584604051610d5a9190614350565b908152602001604051809103902083604051610d769190614350565b908152602001604051809103902082604051610d929190614350565b9081526020016040518091039020600086815260200190815260200160002060060160016101000a81548160ff0219169083151502179055505050505050565b6060806060600080600460003373ffffffffffffffffffffffffffffffffffffffff1673ffffffffffffffffffffffffffffffffffffffff16815260200190815260200160002060008781526020019081526020016000206000015490506000600460003373ffffffffffffffffffffffffffffffffffffffff1673ffffffffffffffffffffffffffffffffffffffff16815260200190815260200160002060008881526020019081526020016000206001018054610e9090614396565b80601f0160208091040260200160405190810160405280929190818152602001828054610ebc90614396565b8015610f095780601f10610ede57610100808354040283529160200191610f09565b820191906000526020600020905b815481529060010190602001808311610eec57829003601f168201915b505050505090506000600460003373ffffffffffffffffffffffffffffffffffffffff1673ffffffffffffffffffffffffffffffffffffffff16815260200190815260200160002060008981526020019081526020016000206002018054610f7090614396565b80601f0160208091040260200160405190810160405280929190818152602001828054610f9c90614396565b8015610fe95780601f10610fbe57610100808354040283529160200191610fe9565b820191906000526020600020905b815481529060010190602001808311610fcc57829003601f168201915b505050505090506000600460003373ffffffffffffffffffffffffffffffffffffffff1673ffffffffffffffffffffffffffffffffffffffff16815260200190815260200160002060008a8152602001908152602001600020600301805461105090614396565b80601f016020809104026020016040519081016040528092919081815260200182805461107c90614396565b80156110c95780601f1061109e576101008083540402835291602001916110c9565b820191906000526020600020905b8154815290600101906020018083116110ac57829003601f168201915b50505050509050828282869750975097509750505050509193509193565b6000600360003373ffffffffffffffffffffffffffffffffffffffff1673ffffffffffffffffffffffffffffffffffffffff16815260200190815260200160002060008481526020019081526020016000206000015490506000600360003373ffffffffffffffffffffffffffffffffffffffff1673ffffffffffffffffffffffffffffffffffffffff1681526020019081526020016000206000858152602001908152602001600020600101805461119f90614396565b80601f01602080910402602001604051908101604052809291908181526020018280546111cb90614396565b80156112185780601f106111ed57610100808354040283529160200191611218565b820191906000526020600020905b8154815290600101906020018083116111fb57829003601f168201915b505050505090506000600360003373ffffffffffffffffffffffffffffffffffffffff1673ffffffffffffffffffffffffffffffffffffffff1681526020019081526020016000206000868152602001908152602001600020600201805461127f90614396565b80601f01602080910402602001604051908101604052809291908181526020018280546112ab90614396565b80156112f85780601f106112cd576101008083540402835291602001916112f8565b820191906000526020600020905b8154815290600101906020018083116112db57829003601f168201915b505050505090506000600360003373ffffffffffffffffffffffffffffffffffffffff1673ffffffffffffffffffffffffffffffffffffffff1681526020019081526020016000206000878152602001908152602001600020600301805461135f90614396565b80601f016020809104026020016040519081016040528092919081815260200182805461138b90614396565b80156113d85780601f106113ad576101008083540402835291602001916113d8565b820191906000526020600020905b8154815290600101906020018083116113bb57829003601f168201915b5050505050905060006005846040516113f19190614350565b90815260200160405180910390208360405161140d9190614350565b9081526020016040518091039020826040516114299190614350565b90815260200160405180910390206000868152602001908152602001600020600701600087815260200190815260200160002060000160009054906101000a900473ffffffffffffffffffffffffffffffffffffffff16905060006005856040516114949190614350565b9081526020016040518091039020846040516114b09190614350565b9081526020016040518091039020836040516114cc9190614350565b9081526020016040518091039020600087815260200190815260200160002060080154905060005b8181101561176f57600060058760405161150e9190614350565b90815260200160405180910390208660405161152a9190614350565b9081526020016040518091039020856040516115469190614350565b90815260200160405180910390206000898152602001908152602001600020600701600083815260200190815260200160002060000160009054906101000a900473ffffffffffffffffffffffffffffffffffffffff16905060006005886040516115b19190614350565b9081526020016040518091039020876040516115cd9190614350565b9081526020016040518091039020866040516115e99190614350565b908152602001604051809103902060008a81526020019081526020016000206007016000848152602001908152602001600020600101549050600460008373ffffffffffffffffffffffffffffffffffffffff1673ffffffffffffffffffffffffffffffffffffffff168152602001908152602001600020600082815260200190815260200160002060008082016000905560018201600061168b91906136ee565b60028201600061169b91906136ee565b6003820160006116ab91906136ee565b50506005886040516116bd9190614350565b9081526020016040518091039020876040516116d99190614350565b9081526020016040518091039020866040516116f59190614350565b908152602001604051809103902060008a81526020019081526020016000206007016000848152602001908152602001600020600080820160006101000a81549073ffffffffffffffffffffffffffffffffffffffff0219169055600182016000905550505050808061176790614489565b9150506114f4565b50816005866040516117819190614350565b90815260200160405180910390208560405161179d9190614350565b9081526020016040518091039020846040516117b99190614350565b9081526020016040518091039020600088815260200190815260200160002060000160006101000a81548173ffffffffffffffffffffffffffffffffffffffff021916908373ffffffffffffffffffffffffffffffffffffffff160217905550600060058660405161182b9190614350565b9081526020016040518091039020856040516118479190614350565b9081526020016040518091039020846040516118639190614350565b9081526020016040518091039020600088815260200190815260200160002060060160016101000a81548160ff02191690831515021790555060006005866040516118ae9190614350565b9081526020016040518091039020856040516118ca9190614350565b9081526020016040518091039020846040516118e69190614350565b9081526020016040518091039020600088815260200190815260200160002060080181905550600360003373ffffffffffffffffffffffffffffffffffffffff1673ffffffffffffffffffffffffffffffffffffffff168152602001908152602001600020600089815260200190815260200160002060008082016000905560018201600061197591906136ee565b60028201600061198591906136ee565b60038201600061199591906136ee565b50506000600660008473ffffffffffffffffffffffffffffffffffffffff1673ffffffffffffffffffffffffffffffffffffffff1681526020019081526020016000206006015490506000600360008573ffffffffffffffffffffffffffffffffffffffff1673ffffffffffffffffffffffffffffffffffffffff1681526020019081526020016000206000838152602001908152602001600020905087816000018190555086816001019080519060200190611a5392919061372e565b5085816002019080519060200190611a6c92919061372e565b5084816003019080519060200190611a8592919061372e565b5081600588604051611a979190614350565b908152602001604051809103902087604051611ab39190614350565b908152602001604051809103902086604051611acf9190614350565b908152602001604051809103902060008a815260200190815260200160002060090181905550600660008573ffffffffffffffffffffffffffffffffffffffff1673ffffffffffffffffffffffffffffffffffffffff1681526020019081526020016000206006016000815480929190611b4890614489565b919050555050505050505050505050565b600080600586604051611b6c9190614350565b908152602001604051809103902085604051611b889190614350565b908152602001604051809103902084604051611ba49190614350565b9081526020016040518091039020600084815260200190815260200160002090506000816008015490506000811415611be257600092505050611c80565b60005b81811015611c78573373ffffffffffffffffffffffffffffffffffffffff1683600701600083815260200190815260200160002060000160009054906101000a900473ffffffffffffffffffffffffffffffffffffffff1673ffffffffffffffffffffffffffffffffffffffff161415611c655760019350505050611c80565b8080611c7090614489565b915050611be5565b506000925050505b949350505050565b60003373ffffffffffffffffffffffffffffffffffffffff16600260003373ffffffffffffffffffffffffffffffffffffffff1673ffffffffffffffffffffffffffffffffffffffff16815260200190815260200160002060000160009054906101000a900473ffffffffffffffffffffffffffffffffffffffff1673ffffffffffffffffffffffffffffffffffffffff161415611d295760019050611d2e565b600090505b90565b60026020528060005260406000206000915090508060000160009054906101000a900473ffffffffffffffffffffffffffffffffffffffff1690806001018054611d7a90614396565b80601f0160208091040260200160405190810160405280929190818152602001828054611da690614396565b8015611df35780601f10611dc857610100808354040283529160200191611df3565b820191906000526020600020905b815481529060010190602001808311611dd657829003601f168201915b505050505090806002018054611e0890614396565b80601f0160208091040260200160405190810160405280929190818152602001828054611e3490614396565b8015611e815780601f10611e5657610100808354040283529160200191611e81565b820191906000526020600020905b815481529060010190602001808311611e6457829003601f168201915b505050505090806003018054611e9690614396565b80601f0160208091040260200160405190810160405280929190818152602001828054611ec290614396565b8015611f0f5780601f10611ee457610100808354040283529160200191611f0f565b820191906000526020600020905b815481529060010190602001808311611ef257829003601f168201915b5050505050905084565b6000806000600660003373ffffffffffffffffffffffffffffffffffffffff1673ffffffffffffffffffffffffffffffffffffffff1681526020019081526020016000206006015490506000600660003373ffffffffffffffffffffffffffffffffffffffff1673ffffffffffffffffffffffffffffffffffffffff16815260200190815260200160002060070154905081819350935050509091565b60066020528060005260406000206000915090508060000160009054906101000a900473ffffffffffffffffffffffffffffffffffffffff1690806001018054611fff90614396565b80601f016020809104026020016040519081016040528092919081815260200182805461202b90614396565b80156120785780601f1061204d57610100808354040283529160200191612078565b820191906000526020600020905b81548152906001019060200180831161205b57829003601f168201915b50505050509080600201805461208d90614396565b80601f01602080910402602001604051908101604052809291908181526020018280546120b990614396565b80156121065780601f106120db57610100808354040283529160200191612106565b820191906000526020600020905b8154815290600101906020018083116120e957829003601f168201915b50505050509080600301805461211b90614396565b80601f016020809104026020016040519081016040528092919081815260200182805461214790614396565b80156121945780601f1061216957610100808354040283529160200191612194565b820191906000526020600020905b81548152906001019060200180831161217757829003601f168201915b5050505050908060040154908060050180546121af90614396565b80601f01602080910402602001604051908101604052809291908181526020018280546121db90614396565b80156122285780601f106121fd57610100808354040283529160200191612228565b820191906000526020600020905b81548152906001019060200180831161220b57829003601f168201915b5050505050908060060154908060070154905088565b60015481565b6000806005876040516122579190614350565b9081526020016040518091039020866040516122739190614350565b90815260200160405180910390208560405161228f9190614350565b90815260200160405180910390206000858152602001908152602001600020600701600084815260200190815260200160002060000160009054906101000a900473ffffffffffffffffffffffffffffffffffffffff1690508091505095945050505050565b6000806005866040516123089190614350565b9081526020016040518091039020856040516123249190614350565b9081526020016040518091039020846040516123409190614350565b9081526020016040518091039020600084815260200190815260200160002060060160019054906101000a900460ff16905080915050949350505050565b6060806060600080600360003373ffffffffffffffffffffffffffffffffffffffff1673ffffffffffffffffffffffffffffffffffffffff16815260200190815260200160002060008781526020019081526020016000206000015490506000600360003373ffffffffffffffffffffffffffffffffffffffff1673ffffffffffffffffffffffffffffffffffffffff1681526020019081526020016000206000888152602001908152602001600020600101805461243c90614396565b80601f016020809104026020016040519081016040528092919081815260200182805461246890614396565b80156124b55780601f1061248a576101008083540402835291602001916124b5565b820191906000526020600020905b81548152906001019060200180831161249857829003601f168201915b505050505090506000600360003373ffffffffffffffffffffffffffffffffffffffff1673ffffffffffffffffffffffffffffffffffffffff1681526020019081526020016000206000898152602001908152602001600020600201805461251c90614396565b80601f016020809104026020016040519081016040528092919081815260200182805461254890614396565b80156125955780601f1061256a57610100808354040283529160200191612595565b820191906000526020600020905b81548152906001019060200180831161257857829003601f168201915b505050505090506000600360003373ffffffffffffffffffffffffffffffffffffffff1673ffffffffffffffffffffffffffffffffffffffff16815260200190815260200160002060008a815260200190815260200160002060030180546125fc90614396565b80601f016020809104026020016040519081016040528092919081815260200182805461262890614396565b80156126755780601f1061264a57610100808354040283529160200191612675565b820191906000526020600020905b81548152906001019060200180831161265857829003601f168201915b50505050509050828282869750975097509750505050509193509193565b3373ffffffffffffffffffffffffffffffffffffffff16600260003373ffffffffffffffffffffffffffffffffffffffff1673ffffffffffffffffffffffffffffffffffffffff16815260200190815260200160002060000160009054906101000a900473ffffffffffffffffffffffffffffffffffffffff1673ffffffffffffffffffffffffffffffffffffffff1614612763576040517f08c379a000000000000000000000000000000000000000000000000000000000815260040161275a9061451e565b60405180910390fd5b600015156005896040516127779190614350565b9081526020016040518091039020886040516127939190614350565b9081526020016040518091039020876040516127af9190614350565b9081526020016040518091039020600086815260200190815260200160002060060160009054906101000a900460ff16151514612821576040517f08c379a0000000000000000000000000000000000000000000000000000000008152600401612818906145b0565b60405180910390fd5b60006005896040516128339190614350565b90815260200160405180910390208860405161284f9190614350565b90815260200160405180910390208760405161286b9190614350565b9081526020016040518091039020600086815260200190815260200160002090506000600360008673ffffffffffffffffffffffffffffffffffffffff1673ffffffffffffffffffffffffffffffffffffffff1681526020019081526020016000206000600660008873ffffffffffffffffffffffffffffffffffffffff1673ffffffffffffffffffffffffffffffffffffffff1681526020019081526020016000206006015481526020019081526020016000209050848260000160006101000a81548173ffffffffffffffffffffffffffffffffffffffff021916908373ffffffffffffffffffffffffffffffffffffffff160217905550338260010160006101000a81548173ffffffffffffffffffffffffffffffffffffffff021916908373ffffffffffffffffffffffffffffffffffffffff160217905550858260040181905550868260020181905550600660008673ffffffffffffffffffffffffffffffffffffffff1673ffffffffffffffffffffffffffffffffffffffff16815260200190815260200160002060060154826009018190555083826003018190555082826005018190555060018260060160006101000a81548160ff02191690831515021790555060008260060160016101000a81548160ff02191690831515021790555085816000018190555089816001019080519060200190612a7292919061372e565b5088816002019080519060200190612a8b92919061372e565b5087816003019080519060200190612aa492919061372e565b50600660008673ffffffffffffffffffffffffffffffffffffffff1673ffffffffffffffffffffffffffffffffffffffff1681526020019081526020016000206006016000815480929190612af890614489565b919050555050505050505050505050565b6000600260008673ffffffffffffffffffffffffffffffffffffffff1673ffffffffffffffffffffffffffffffffffffffff168152602001908152602001600020905060016000815480929190612b5f90614489565b9190505550848160000160006101000a81548173ffffffffffffffffffffffffffffffffffffffff021916908373ffffffffffffffffffffffffffffffffffffffff16021790555083816001019080519060200190612bbf92919061372e565b5082816002019080519060200190612bd892919061372e565b5081816003019080519060200190612bf192919061372e565b505050505050565b6000600660003373ffffffffffffffffffffffffffffffffffffffff1673ffffffffffffffffffffffffffffffffffffffff168152602001908152602001600020905085816001019080519060200190612c5492919061372e565b5084816002019080519060200190612c6d92919061372e565b5083816003019080519060200190612c8692919061372e565b5082816004018190555081816005019080519060200190612ca892919061372e565b50505050505050565b600460205281600052604060002060205280600052604060002060009150915050806000015490806001018054612ce790614396565b80601f0160208091040260200160405190810160405280929190818152602001828054612d1390614396565b8015612d605780601f10612d3557610100808354040283529160200191612d60565b820191906000526020600020905b815481529060010190602001808311612d4357829003601f168201915b505050505090806002018054612d7590614396565b80601f0160208091040260200160405190810160405280929190818152602001828054612da190614396565b8015612dee5780601f10612dc357610100808354040283529160200191612dee565b820191906000526020600020905b815481529060010190602001808311612dd157829003601f168201915b505050505090806003018054612e0390614396565b80601f0160208091040260200160405190810160405280929190818152602001828054612e2f90614396565b8015612e7c5780601f10612e5157610100808354040283529160200191612e7c565b820191906000526020600020905b815481529060010190602001808311612e5f57829003601f168201915b5050505050905084565b600360205281600052604060002060205280600052604060002060009150915050806000015490806001018054612ebc90614396565b80601f0160208091040260200160405190810160405280929190818152602001828054612ee890614396565b8015612f355780601f10612f0a57610100808354040283529160200191612f35565b820191906000526020600020905b815481529060010190602001808311612f1857829003601f168201915b505050505090806002018054612f4a90614396565b80601f0160208091040260200160405190810160405280929190818152602001828054612f7690614396565b8015612fc35780601f10612f9857610100808354040283529160200191612fc3565b820191906000526020600020905b815481529060010190602001808311612fa657829003601f168201915b505050505090806003018054612fd890614396565b80601f016020809104026020016040519081016040528092919081815260200182805461300490614396565b80156130515780601f1061302657610100808354040283529160200191613051565b820191906000526020600020905b81548152906001019060200180831161303457829003601f168201915b5050505050905084565b600060058560405161306d9190614350565b9081526020016040518091039020846040516130899190614350565b9081526020016040518091039020836040516130a59190614350565b908152602001604051809103902060008381526020019081526020016000209050600115158160060160019054906101000a900460ff1615151461311e576040517f08c379a000000000000000000000000000000000000000000000000000000000815260040161311590614642565b60405180910390fd5b6000816008015490503382600701600083815260200190815260200160002060000160006101000a81548173ffffffffffffffffffffffffffffffffffffffff021916908373ffffffffffffffffffffffffffffffffffffffff160217905550600660003373ffffffffffffffffffffffffffffffffffffffff1673ffffffffffffffffffffffffffffffffffffffff16815260200190815260200160002060070154826007016000838152602001908152602001600020600101819055508160080160008154809291906131f290614489565b91905055506000600460003373ffffffffffffffffffffffffffffffffffffffff1673ffffffffffffffffffffffffffffffffffffffff1681526020019081526020016000206000600660003373ffffffffffffffffffffffffffffffffffffffff1673ffffffffffffffffffffffffffffffffffffffff1681526020019081526020016000206007015481526020019081526020016000209050838160000181905550868160010190805190602001906132ae92919061372e565b50858160020190805190602001906132c792919061372e565b50848160030190805190602001906132e092919061372e565b50600660003373ffffffffffffffffffffffffffffffffffffffff1673ffffffffffffffffffffffffffffffffffffffff168152602001908152602001600020600701600081548092919061333490614489565b919050555050505050505050565b60008060008060008060058a60405161335b9190614350565b9081526020016040518091039020896040516133779190614350565b9081526020016040518091039020886040516133939190614350565b9081526020016040518091039020600088815260200190815260200160002060000160009054906101000a900473ffffffffffffffffffffffffffffffffffffffff169050600060058b6040516133ea9190614350565b90815260200160405180910390208a6040516134069190614350565b9081526020016040518091039020896040516134229190614350565b90815260200160405180910390206000898152602001908152602001600020600201549050600060058c6040516134599190614350565b90815260200160405180910390208b6040516134759190614350565b90815260200160405180910390208a6040516134919190614350565b908152602001604051809103902060008a8152602001908152602001600020600901549050600060058d6040516134c89190614350565b90815260200160405180910390208c6040516134e49190614350565b90815260200160405180910390208b6040516135009190614350565b908152602001604051809103902060008b8152602001908152602001600020600301549050600060058e6040516135379190614350565b90815260200160405180910390208d6040516135539190614350565b90815260200160405180910390208c60405161356f9190614350565b908152602001604051809103902060008c81526020019081526020016000206005015490508484848484995099509950995099505050505050945094509450945094565b60058480516020810182018051848252602083016020850120818352809550505050505083805160208101820180518482526020830160208501208183528095505050505050828051602081018201805184825260208301602085012081835280955050505050506020528060005260406000206000935093505050508060000160009054906101000a900473ffffffffffffffffffffffffffffffffffffffff16908060010160009054906101000a900473ffffffffffffffffffffffffffffffffffffffff16908060020154908060030154908060040154908060050154908060060160009054906101000a900460ff16908060060160019054906101000a900460ff1690806008015490806009015490508a565b60008054906101000a900473ffffffffffffffffffffffffffffffffffffffff1681565b5080546136fa90614396565b6000825580601f1061370c575061372b565b601f01602090049060005260206000209081019061372a91906137b4565b5b50565b82805461373a90614396565b90600052602060002090601f01602090048101928261375c57600085556137a3565b82601f1061377557805160ff19168380011785556137a3565b828001600101855582156137a3579182015b828111156137a2578251825591602001919060010190613787565b5b5090506137b091906137b4565b5090565b5b808211156137cd5760008160009055506001016137b5565b5090565b6000604051905090565b600080fd5b600080fd5b600080fd5b600080fd5b6000601f19601f8301169050919050565b7f4e487b7100000000000000000000000000000000000000000000000000000000600052604160045260246000fd5b613838826137ef565b810181811067ffffffffffffffff8211171561385757613856613800565b5b80604052505050565b600061386a6137d1565b9050613876828261382f565b919050565b600067ffffffffffffffff82111561389657613895613800565b5b61389f826137ef565b9050602081019050919050565b82818337600083830152505050565b60006138ce6138c98461387b565b613860565b9050828152602081018484840111156138ea576138e96137ea565b5b6138f58482856138ac565b509392505050565b600082601f830112613912576139116137e5565b5b81356139228482602086016138bb565b91505092915050565b6000819050919050565b61393e8161392b565b811461394957600080fd5b50565b60008135905061395b81613935565b92915050565b6000806000806080858703121561397b5761397a6137db565b5b600085013567ffffffffffffffff811115613999576139986137e0565b5b6139a5878288016138fd565b945050602085013567ffffffffffffffff8111156139c6576139c56137e0565b5b6139d2878288016138fd565b935050604085013567ffffffffffffffff8111156139f3576139f26137e0565b5b6139ff878288016138fd565b9250506060613a108782880161394c565b91505092959194509250565b613a258161392b565b82525050565b6000604082019050613a406000830185613a1c565b613a4d6020830184613a1c565b9392505050565b600081519050919050565b600082825260208201905092915050565b60005b83811015613a8e578082015181840152602081019050613a73565b83811115613a9d576000848401525b50505050565b6000613aae82613a54565b613ab88185613a5f565b9350613ac8818560208601613a70565b613ad1816137ef565b840191505092915050565b600060a0820190508181036000830152613af68188613aa3565b90508181036020830152613b0a8187613aa3565b90508181036040830152613b1e8186613aa3565b9050613b2d6060830185613a1c565b8181036080830152613b3f8184613aa3565b90509695505050505050565b600060208284031215613b6157613b606137db565b5b6000613b6f8482850161394c565b91505092915050565b60006080820190508181036000830152613b928187613aa3565b90508181036020830152613ba68186613aa3565b90508181036040830152613bba8185613aa3565b9050613bc96060830184613a1c565b95945050505050565b60008060408385031215613be957613be86137db565b5b6000613bf78582860161394c565b9250506020613c088582860161394c565b9150509250929050565b60008115159050919050565b613c2781613c12565b82525050565b6000602082019050613c426000830184613c1e565b92915050565b600073ffffffffffffffffffffffffffffffffffffffff82169050919050565b6000613c7382613c48565b9050919050565b613c8381613c68565b8114613c8e57600080fd5b50565b600081359050613ca081613c7a565b92915050565b600060208284031215613cbc57613cbb6137db565b5b6000613cca84828501613c91565b91505092915050565b613cdc81613c68565b82525050565b6000608082019050613cf76000830187613cd3565b8181036020830152613d098186613aa3565b90508181036040830152613d1d8185613aa3565b90508181036060830152613d318184613aa3565b905095945050505050565b600061010082019050613d52600083018b613cd3565b8181036020830152613d64818a613aa3565b90508181036040830152613d788189613aa3565b90508181036060830152613d8c8188613aa3565b9050613d9b6080830187613a1c565b81810360a0830152613dad8186613aa3565b9050613dbc60c0830185613a1c565b613dc960e0830184613a1c565b9998505050505050505050565b6000602082019050613deb6000830184613a1c565b92915050565b600080600080600060a08688031215613e0d57613e0c6137db565b5b600086013567ffffffffffffffff811115613e2b57613e2a6137e0565b5b613e37888289016138fd565b955050602086013567ffffffffffffffff811115613e5857613e576137e0565b5b613e64888289016138fd565b945050604086013567ffffffffffffffff811115613e8557613e846137e0565b5b613e91888289016138fd565b9350506060613ea28882890161394c565b9250506080613eb38882890161394c565b9150509295509295909350565b6000602082019050613ed56000830184613cd3565b92915050565b600080600080600080600080610100898b031215613efc57613efb6137db565b5b600089013567ffffffffffffffff811115613f1a57613f196137e0565b5b613f268b828c016138fd565b985050602089013567ffffffffffffffff811115613f4757613f466137e0565b5b613f538b828c016138fd565b975050604089013567ffffffffffffffff811115613f7457613f736137e0565b5b613f808b828c016138fd565b9650506060613f918b828c0161394c565b9550506080613fa28b828c0161394c565b94505060a0613fb38b828c01613c91565b93505060c0613fc48b828c0161394c565b92505060e0613fd58b828c0161394c565b9150509295985092959890939650565b60008060008060808587031215613fff57613ffe6137db565b5b600061400d87828801613c91565b945050602085013567ffffffffffffffff81111561402e5761402d6137e0565b5b61403a878288016138fd565b935050604085013567ffffffffffffffff81111561405b5761405a6137e0565b5b614067878288016138fd565b925050606085013567ffffffffffffffff811115614088576140876137e0565b5b614094878288016138fd565b91505092959194509250565b600080600080600060a086880312156140bc576140bb6137db565b5b600086013567ffffffffffffffff8111156140da576140d96137e0565b5b6140e6888289016138fd565b955050602086013567ffffffffffffffff811115614107576141066137e0565b5b614113888289016138fd565b945050604086013567ffffffffffffffff811115614134576141336137e0565b5b614140888289016138fd565b93505060606141518882890161394c565b925050608086013567ffffffffffffffff811115614172576141716137e0565b5b61417e888289016138fd565b9150509295509295909350565b600080604083850312156141a2576141a16137db565b5b60006141b085828601613c91565b92505060206141c18582860161394c565b9150509250929050565b60006080820190506141e06000830187613a1c565b81810360208301526141f28186613aa3565b905081810360408301526142068185613aa3565b9050818103606083015261421a8184613aa3565b905095945050505050565b600060a08201905061423a6000830188613cd3565b6142476020830187613a1c565b6142546040830186613a1c565b6142616060830185613a1c565b61426e6080830184613a1c565b9695505050505050565b60006101408201905061428e600083018d613cd3565b61429b602083018c613cd3565b6142a8604083018b613a1c565b6142b5606083018a613a1c565b6142c26080830189613a1c565b6142cf60a0830188613a1c565b6142dc60c0830187613c1e565b6142e960e0830186613c1e565b6142f7610100830185613a1c565b614305610120830184613a1c565b9b9a5050505050505050505050565b600081905092915050565b600061432a82613a54565b6143348185614314565b9350614344818560208601613a70565b80840191505092915050565b600061435c828461431f565b915081905092915050565b7f4e487b7100000000000000000000000000000000000000000000000000000000600052602260045260246000fd5b600060028204905060018216806143ae57607f821691505b602082108114156143c2576143c1614367565b5b50919050565b7f546869732070726f706572747920697320616c7265616479206d61726b65642060008201527f617661696c61626c650000000000000000000000000000000000000000000000602082015250565b6000614424602983613a5f565b915061442f826143c8565b604082019050919050565b6000602082019050818103600083015261445381614417565b9050919050565b7f4e487b7100000000000000000000000000000000000000000000000000000000600052601160045260246000fd5b60006144948261392b565b91507fffffffffffffffffffffffffffffffffffffffffffffffffffffffffffffffff8214156144c7576144c661445a565b5b600182019050919050565b7f4f6e6c792061646d696e2063616e205265676973746572206c616e6400000000600082015250565b6000614508601c83613a5f565b9150614513826144d2565b602082019050919050565b60006020820190508181036000830152614537816144fb565b9050919050565b7f526567697374726174696f6e206f66207468697320737572766579206e756d6260008201527f657220697320616c726561647920646f6e650000000000000000000000000000602082015250565b600061459a603283613a5f565b91506145a58261453e565b604082019050919050565b600060208201905081810360008301526145c98161458d565b9050919050565b7f546869732070726f7065727479206973206e6f7420617661696c61626c65666f60008201527f722073616c650000000000000000000000000000000000000000000000000000602082015250565b600061462c602683613a5f565b9150614637826145d0565b604082019050919050565b6000602082019050818103600083015261465b8161461f565b905091905056fea2646970667358221220f014e1cca104d04b32d9bf6b5e82ddf31d7952cda5bd29a12f34f97c7ac8ddd364736f6c63430008090033",
  "immutableReferences": {},
  "source": "// SPDX-License-Identifier: MIT\npragma solidity >= 0.5.0 < 0.9.0;\n\n\n//Admin = LandInspector\n//superadmin = Admin\n//userprofile = user\ncontract Registration{\n    address public Admin;\n    uint public totalLandInspectors;\n\n    struct LandInspector{\n        address landInspectorAddress;\n        // string name;\n        string city;\n        string district;\n        string state;\n    }\n\n    struct PropertyDetails{\n        address owner;\n        address landInspector;\n        uint256 propertyID;\n        //string propertyAddress;\n        uint propertyPrice;\n        uint surveyNumber;\n        uint carpetArea;\n        bool isRegistered;\n        bool isAvailable;\n        //bool isVerified;\n        mapping(uint => RequestDetails) requests;\n        uint totalRequests;\n        uint index;\n    }\n\n    struct User{\n        address userAddress;\n        string name;\n        string gender;\n        string emailAddress;\n        uint256 contactNumber;\n        string residentialAddress;\n        //uint aadharNumber;\n        //string document;\n        //string isVerified;\n        uint totalIndices;\n        uint requestIndices;\n    }\n    \n      struct OwnerOwned{\n        uint surveyNumber;\n        string state;\n        string district;\n        string city;\n    }\n    \n    struct RequestedProperty{\n        uint surveyNumber;\n        string state;\n        string district;\n        string city;\n    }\n\n    struct RequestDetails{\n        address requestedUser;\n        uint requestIndex;\n    }\n\n    mapping(address => LandInspector) public landInspectors;\n    mapping(address => mapping(uint => OwnerOwned)) public ownerMapsProperty;// ownerAddr => index no. => OwnerOwns \n    mapping(address => mapping(uint => RequestedProperty)) public requestedProperty;// ownerAddr => requestIndex => RequestedProperty\n    mapping(string => mapping(string => mapping(string => mapping(uint => PropertyDetails)))) public landDetailsMap;// state => district => city => surveyNo => LandDetails\n    mapping(address => User) public user;\n\n    constructor(){\n        Admin = msg.sender;\n    }\n\n    //Here, if the address of the user matches with the address of the landInspector then function can continue\n    modifier onlyLandInspector(){\n        require(landInspectors[msg.sender].landInspectorAddress == msg.sender, \"Only admin can Register land\");\n        _;\n    }\n\n    //Here, Admin registers landInspector\n    function addLandInspector(address _landInspectorAddr, string memory _city, string memory _district, string memory _state) public{\n        LandInspector storage newLandInspector = landInspectors[_landInspectorAddr];\n        totalLandInspectors++;\n\n        newLandInspector.landInspectorAddress = _landInspectorAddr;\n        //newLandInspector.name = _name;\n        newLandInspector.city = _city;\n        newLandInspector.district = _district;\n        newLandInspector.state = _state;\n    }\n\n    //Here, we are checking if the landInspector is valid\n    function isLandInspector() public view returns(bool){\n        if(landInspectors[msg.sender].landInspectorAddress == msg.sender){\n            return true;\n        }\n        else return false;\n    }\n\n    function propertyRegistry(string memory _state, string memory _district, string memory _city, uint256 _propertyID , uint _surveyNumber, address _owner, uint _propertyPrice, uint _carpetArea) public onlyLandInspector{\n\n        //keccak256 is used to encrypt data into hash\n        // require(keccak256(abi.encodePacked(landInspectors[msg.sender].state)) == keccak256(abi.encodePacked(_state))  \n        // && keccak256(abi.encodePacked(landInspectors[msg.sender].district)) == keccak256(abi.encodePacked(_district))\n        // && keccak256(abi.encodePacked(landInspectors[msg.sender].city)) == keccak256(abi.encodePacked(_city)), \"LandInspector can only register property of same city.\");\n\n        //Here, the registration of land for same survey number cannot be done\n        require(landDetailsMap[_state][_district][_city][_surveyNumber].isRegistered == false, \"Registration of this survey number is already done\");  \n\n\n        PropertyDetails storage newRegistration = landDetailsMap[_state][_district][_city][_surveyNumber];\n        OwnerOwned storage newOwnerOwned = ownerMapsProperty[_owner][user[_owner].totalIndices];\n\n\n        newRegistration.owner = _owner;\n        newRegistration.landInspector = msg.sender;\n        newRegistration.surveyNumber = _surveyNumber;\n        newRegistration.propertyID = _propertyID;\n        newRegistration.index = user[_owner].totalIndices;\n        newRegistration.propertyPrice = _propertyPrice;\n        newRegistration.carpetArea = _carpetArea;\n        newRegistration.isRegistered = true;\n        newRegistration.isAvailable = false;\n\n        newOwnerOwned.surveyNumber = _surveyNumber;\n        newOwnerOwned.state = _state;\n        newOwnerOwned.district = _district;\n        newOwnerOwned.city = _city;\n\n        user[_owner].totalIndices++;\n    }\n\n    \n    // User Registration\n    function userRegistration(string memory _name, string memory _gender, string memory _emailAddress, uint256 _contactNumber, string memory _residentialAddress /*,uint _aadharNumber*/) public{\n\n        User storage newUser = user[msg.sender];\n\n        newUser.name = _name;\n        newUser.gender = _gender;\n        newUser.emailAddress = _emailAddress;\n        newUser.contactNumber = _contactNumber;\n        newUser.residentialAddress = _residentialAddress;\n        //newUser.aadharNumber = _aadharNumber;\n    }\n\n// User/owner marks their property available\n    function markAvailable(uint indexNo) public {\n        \n        uint surveyNumber = ownerMapsProperty[msg.sender][indexNo].surveyNumber; \n        string memory state = ownerMapsProperty[msg.sender][indexNo].state;\n        string memory district = ownerMapsProperty[msg.sender][indexNo].district;\n        string memory city = ownerMapsProperty[msg.sender][indexNo].city;\n        \n\n        require(landDetailsMap[state][district][city][surveyNumber].isAvailable == false, \"This property is already marked available\");\n\n        landDetailsMap[state][district][city][surveyNumber].isAvailable = true;\n    }\n\n    //user request the land to buy that he is interested in\n    function RequestProperty(string memory _state, string memory _district, string memory _city, uint _surveyNumber)public {\n\n        PropertyDetails storage currentPropertyDetail = landDetailsMap[_state][_district][_city][_surveyNumber];\n        require(currentPropertyDetail.isAvailable  == true,\"This property is not availablefor sale\");\n\n\n        uint requestNumber = currentPropertyDetail.totalRequests;\n        currentPropertyDetail.requests[requestNumber].requestedUser = msg.sender;\n        currentPropertyDetail.requests[requestNumber].requestIndex = user[msg.sender].requestIndices;\n        currentPropertyDetail.totalRequests++;\n\n        // adding requested land to user_2 profile\n        RequestedProperty storage newRequestedProperty = requestedProperty[msg.sender][user[msg.sender].requestIndices];\n        newRequestedProperty.surveyNumber = _surveyNumber;\n        newRequestedProperty.state = _state;\n        newRequestedProperty.district = _district;\n        newRequestedProperty.city = _city;\n\n        user[msg.sender].requestIndices++;\n    }\n\n    function RequestAccept(uint _indexNumber,uint _requestNumber)public{\n\n        uint _surveyNumber = ownerMapsProperty[msg.sender][_indexNumber].surveyNumber;\n        string memory _state = ownerMapsProperty[msg.sender][_indexNumber].state;\n        string memory _district = ownerMapsProperty[msg.sender][_indexNumber].district;\n        string memory _city = ownerMapsProperty[msg.sender][_indexNumber].city;\n\n        address newBuyer = landDetailsMap[_state][_district][_city][_surveyNumber].requests[_requestNumber].requestedUser;\n        //uint newBuyer_requestIndex = landDetailsMap[_state][_district][_city][_surveyNumber].requests[_requestNumber].requestIndex;\n        uint totalReq = landDetailsMap[_state][_district][_city][_surveyNumber].totalRequests;\n\n\n        // deleting requested land from all requesters AND removing all incoming requests\n        for(uint i=0; i<totalReq;i++){\n            address addrOfRequester = landDetailsMap[_state][_district][_city][_surveyNumber].requests[i].requestedUser;\n            uint requestIndexOfRequester = landDetailsMap[_state][_district][_city][_surveyNumber].requests[i].requestIndex;\n\n            delete requestedProperty[addrOfRequester][requestIndexOfRequester];\n            delete landDetailsMap[_state][_district][_city][_surveyNumber].requests[i];\n        }\n\n        landDetailsMap[_state][_district][_city][_surveyNumber].owner = newBuyer;\n        landDetailsMap[_state][_district][_city][_surveyNumber].isAvailable = false;\n        landDetailsMap[_state][_district][_city][_surveyNumber].totalRequests = 0;\n\n        delete ownerMapsProperty[msg.sender][_indexNumber];\n\n        uint newOwnerProperty = user[newBuyer].totalIndices;\n        OwnerOwned storage newOwnerOwned = ownerMapsProperty[newBuyer][newOwnerProperty];\n\n        newOwnerOwned.surveyNumber = _surveyNumber;\n        newOwnerOwned.state = _state;\n        newOwnerOwned.district = _district;\n        newOwnerOwned.city = _city;\n\n        landDetailsMap[_state][_district][_city][_surveyNumber].index = newOwnerProperty;\n\n        user[newBuyer].totalIndices++;\n    }\n\n    function extractPropertyDetails(string memory _state, string memory _district, string memory _city, uint _surveyNumber)public view returns(address,uint256,uint,uint,uint){\n\n        address owner = landDetailsMap[_state][_district][_city][_surveyNumber].owner;\n        uint256 propertyId = landDetailsMap[_state][_district][_city][_surveyNumber].propertyID;\n        uint index = landDetailsMap[_state][_district][_city][_surveyNumber].index;\n        uint price = landDetailsMap[_state][_district][_city][_surveyNumber].propertyPrice;\n        uint area = landDetailsMap[_state][_district][_city][_surveyNumber].carpetArea;\n\n        return(owner, propertyId, index, price, area);\n    }\n\n    function extractRequestCount(string memory _state, string memory _district, string memory _city, uint _surveyNumber) public view returns(uint, uint256){\n\n        uint _totalRequests = landDetailsMap[_state][_district][_city][_surveyNumber].totalRequests;\n        uint256 _propertyID = landDetailsMap[_state][_district][_city][_surveyNumber].propertyID;\n        return(_totalRequests, _propertyID);\n    }\n\n    function extractRequester(string memory _state, string memory _district, string memory _city, uint _surveyNumber, uint _requestIndex) public view returns(address){\n        address requester = landDetailsMap[_state][_district][_city][_surveyNumber].requests[_requestIndex].requestedUser;\n        return(requester);\n    }\n\n    function isAvailable(string memory _state, string memory _district, string memory _city, uint _surveyNumber)public view returns(bool){\n        bool isavailable = landDetailsMap[_state][_district][_city][_surveyNumber].isAvailable;\n        return(isavailable);\n    }\n\n    function extractOwnerOwned(uint index) public view returns(string memory, string memory, string memory, uint){\n\n        uint surveyNumber = ownerMapsProperty[msg.sender][index].surveyNumber;\n        string memory state = ownerMapsProperty[msg.sender][index].state;\n        string memory district = ownerMapsProperty[msg.sender][index].district;\n        string memory city = ownerMapsProperty[msg.sender][index].city;\n\n        return(state, district, city, surveyNumber);\n    } \n\n    function extractRequestedProperty(uint index) public view returns(string memory, string memory, string memory, uint){\n\n        uint surveyNumber = requestedProperty[msg.sender][index].surveyNumber;\n        string memory state = requestedProperty[msg.sender][index].state;\n        string memory district = requestedProperty[msg.sender][index].district;\n        string memory city = requestedProperty[msg.sender][index].city;\n\n        return(state, district, city, surveyNumber);\n    }\n\n    function extractUser()public view returns(string memory, string memory, string memory, uint256, string memory){\n\n        string memory name = user[msg.sender].name;\n        string memory gender = user[msg.sender].gender;\n        string memory emailAddress = user[msg.sender].emailAddress;\n        uint256 contactNumber = user[msg.sender].contactNumber;\n        string memory residentialAddress = user[msg.sender].residentialAddress;\n\n        return(name, gender, emailAddress, contactNumber, residentialAddress);\n    }\n\n    function extractIndices() public view returns(uint, uint){\n\n        uint _noOfIndices = user[msg.sender].totalIndices;\n        uint _requestIndices = user[msg.sender].requestIndices;\n\n        return(_noOfIndices, _requestIndices);\n    }\n\n    function haveRequested(string memory _state, string memory _district, string memory _city, uint _surveyNumber) public view returns(bool){\n\n        PropertyDetails storage currentPropertyDetail = landDetailsMap[_state][_district][_city][_surveyNumber];\n        uint _totalRequests = currentPropertyDetail.totalRequests;\n\n        if(_totalRequests == 0){\n            return (false);\n        }\n\n        for(uint i=0; i<_totalRequests; i++){\n            if(currentPropertyDetail.requests[i].requestedUser ==  msg.sender){\n                return (true);\n            }\n        }\n\n        return (false);\n    }\n\n\n}\n",
  "sourcePath": "C:\\Users\\Admin\\Desktop\\final year proj\\land reg new\\contracts\\Registration.sol",
  "compiler": {
    "name": "solc",
    "version": "0.8.9+commit.e5eed63a.Emscripten.clang"
  },
  "schemaVersion": "3.4.10",
  "updatedAt": "2023-04-15T12:55:15.668Z",
  "networkType": "ethereum",
  "devdoc": {
    "kind": "dev",
    "methods": {},
    "version": 1
  },
  "userdoc": {
    "kind": "user",
    "methods": {},
    "version": 1
  }
}